{
  "_format": "hh-sol-artifact-1",
  "contractName": "Issue",
  "sourceName": "contracts/Issue.sol",
  "abi": [
    {
      "inputs": [
        {
          "internalType": "string",
          "name": "_I_title",
          "type": "string"
        },
        {
          "internalType": "string",
          "name": "_I_disc",
          "type": "string"
        },
        {
          "internalType": "string",
          "name": "_I_img",
          "type": "string"
        },
        {
          "internalType": "address",
          "name": "_Owner",
          "type": "address"
        }
      ],
      "stateMutability": "nonpayable",
      "type": "constructor"
    },
    {
      "anonymous": false,
      "inputs": [
        {
          "indexed": false,
          "internalType": "uint256",
          "name": "Votevalue",
          "type": "uint256"
        },
        {
          "indexed": false,
          "internalType": "address",
          "name": "Voter",
          "type": "address"
        },
        {
          "indexed": false,
          "internalType": "uint256",
          "name": "time",
          "type": "uint256"
        }
      ],
      "name": "Showvote",
      "type": "event"
    },
    {
      "inputs": [],
      "name": "I_disc",
      "outputs": [
        {
          "internalType": "string",
          "name": "",
          "type": "string"
        }
      ],
      "stateMutability": "view",
      "type": "function"
    },
    {
      "inputs": [],
      "name": "I_img",
      "outputs": [
        {
          "internalType": "string",
          "name": "",
          "type": "string"
        }
      ],
      "stateMutability": "view",
      "type": "function"
    },
    {
      "inputs": [],
      "name": "I_title",
      "outputs": [
        {
          "internalType": "string",
          "name": "",
          "type": "string"
        }
      ],
      "stateMutability": "view",
      "type": "function"
    },
    {
      "inputs": [],
      "name": "Owner",
      "outputs": [
        {
          "internalType": "address",
          "name": "",
          "type": "address"
        }
      ],
      "stateMutability": "view",
      "type": "function"
    },
    {
      "inputs": [],
      "name": "Vote",
      "outputs": [
        {
          "internalType": "uint256",
          "name": "",
          "type": "uint256"
        }
      ],
      "stateMutability": "view",
      "type": "function"
    },
    {
      "inputs": [
        {
          "internalType": "uint256",
          "name": "_vote",
          "type": "uint256"
        }
      ],
      "name": "VoteforIssue",
      "outputs": [],
      "stateMutability": "nonpayable",
      "type": "function"
    }
  ],
  "bytecode": "0x608060405234801561001057600080fd5b50604051610bdf380380610bdf8339818101604052810190610032919061027f565b8360009081610041919061055b565b508260019081610051919061055b565b508160029081610061919061055b565b5080600360006101000a81548173ffffffffffffffffffffffffffffffffffffffff021916908373ffffffffffffffffffffffffffffffffffffffff1602179055505050505061062d565b6000604051905090565b600080fd5b600080fd5b600080fd5b600080fd5b6000601f19601f8301169050919050565b7f4e487b7100000000000000000000000000000000000000000000000000000000600052604160045260246000fd5b610113826100ca565b810181811067ffffffffffffffff82111715610132576101316100db565b5b80604052505050565b60006101456100ac565b9050610151828261010a565b919050565b600067ffffffffffffffff821115610171576101706100db565b5b61017a826100ca565b9050602081019050919050565b60005b838110156101a557808201518184015260208101905061018a565b60008484015250505050565b60006101c46101bf84610156565b61013b565b9050828152602081018484840111156101e0576101df6100c5565b5b6101eb848285610187565b509392505050565b600082601f830112610208576102076100c0565b5b81516102188482602086016101b1565b91505092915050565b600073ffffffffffffffffffffffffffffffffffffffff82169050919050565b600061024c82610221565b9050919050565b61025c81610241565b811461026757600080fd5b50565b60008151905061027981610253565b92915050565b60008060008060808587031215610299576102986100b6565b5b600085015167ffffffffffffffff8111156102b7576102b66100bb565b5b6102c3878288016101f3565b945050602085015167ffffffffffffffff8111156102e4576102e36100bb565b5b6102f0878288016101f3565b935050604085015167ffffffffffffffff811115610311576103106100bb565b5b61031d878288016101f3565b925050606061032e8782880161026a565b91505092959194509250565b600081519050919050565b7f4e487b7100000000000000000000000000000000000000000000000000000000600052602260045260246000fd5b6000600282049050600182168061038c57607f821691505b60208210810361039f5761039e610345565b5b50919050565b60008190508160005260206000209050919050565b60006020601f8301049050919050565b600082821b905092915050565b6000600883026104077fffffffffffffffffffffffffffffffffffffffffffffffffffffffffffffffff826103ca565b61041186836103ca565b95508019841693508086168417925050509392505050565b6000819050919050565b6000819050919050565b600061045861045361044e84610429565b610433565b610429565b9050919050565b6000819050919050565b6104728361043d565b61048661047e8261045f565b8484546103d7565b825550505050565b600090565b61049b61048e565b6104a6818484610469565b505050565b5b818110156104ca576104bf600082610493565b6001810190506104ac565b5050565b601f82111561050f576104e0816103a5565b6104e9846103ba565b810160208510156104f8578190505b61050c610504856103ba565b8301826104ab565b50505b505050565b600082821c905092915050565b600061053260001984600802610514565b1980831691505092915050565b600061054b8383610521565b9150826002028217905092915050565b6105648261033a565b67ffffffffffffffff81111561057d5761057c6100db565b5b6105878254610374565b6105928282856104ce565b600060209050601f8311600181146105c557600084156105b3578287015190505b6105bd858261053f565b865550610625565b601f1984166105d3866103a5565b60005b828110156105fb578489015182556001820191506020850194506020810190506105d6565b868310156106185784890151610614601f891682610521565b8355505b6001600288020188555050505b505050505050565b6105a38061063c6000396000f3fe608060405234801561001057600080fd5b50600436106100625760003560e01c80630cc3f17d146100675780636bf52ffa146100855780638a83df6d146100a3578063a8ab8735146100c1578063b4a99a4e146100df578063c206d9f6146100fd575b600080fd5b61006f610119565b60405161007c91906103c6565b60405180910390f35b61008d6101a7565b60405161009a9190610401565b60405180910390f35b6100ab6101ad565b6040516100b891906103c6565b60405180910390f35b6100c961023b565b6040516100d691906103c6565b60405180910390f35b6100e76102c9565b6040516100f4919061045d565b60405180910390f35b610117600480360381019061011291906104a9565b6102ef565b005b6000805461012690610505565b80601f016020809104026020016040519081016040528092919081815260200182805461015290610505565b801561019f5780601f106101745761010080835404028352916020019161019f565b820191906000526020600020905b81548152906001019060200180831161018257829003601f168201915b505050505081565b60045481565b600180546101ba90610505565b80601f01602080910402602001604051908101604052809291908181526020018280546101e690610505565b80156102335780601f1061020857610100808354040283529160200191610233565b820191906000526020600020905b81548152906001019060200180831161021657829003601f168201915b505050505081565b6002805461024890610505565b80601f016020809104026020016040519081016040528092919081815260200182805461027490610505565b80156102c15780601f10610296576101008083540402835291602001916102c1565b820191906000526020600020905b8154815290600101906020018083116102a457829003601f168201915b505050505081565b600360009054906101000a900473ffffffffffffffffffffffffffffffffffffffff1681565b806004819055507f954e55d7b5d05b18b97a925839a55ccfbbfb9a83f3a6ab9a6d246f08a50c27c4600454334260405161032b93929190610536565b60405180910390a150565b600081519050919050565b600082825260208201905092915050565b60005b83811015610370578082015181840152602081019050610355565b60008484015250505050565b6000601f19601f8301169050919050565b600061039882610336565b6103a28185610341565b93506103b2818560208601610352565b6103bb8161037c565b840191505092915050565b600060208201905081810360008301526103e0818461038d565b905092915050565b6000819050919050565b6103fb816103e8565b82525050565b600060208201905061041660008301846103f2565b92915050565b600073ffffffffffffffffffffffffffffffffffffffff82169050919050565b60006104478261041c565b9050919050565b6104578161043c565b82525050565b6000602082019050610472600083018461044e565b92915050565b600080fd5b610486816103e8565b811461049157600080fd5b50565b6000813590506104a38161047d565b92915050565b6000602082840312156104bf576104be610478565b5b60006104cd84828501610494565b91505092915050565b7f4e487b7100000000000000000000000000000000000000000000000000000000600052602260045260246000fd5b6000600282049050600182168061051d57607f821691505b6020821081036105305761052f6104d6565b5b50919050565b600060608201905061054b60008301866103f2565b610558602083018561044e565b61056560408301846103f2565b94935050505056fea264697066735822122089757c36caba0182729e4c0189472ecfc5bec967cce9d236f7087d976897979b64736f6c634300081c0033",
  "linkReferences": {},
  "deployedLinkReferences": {}
}